{
  "address": "0x6e46712Bc85bc00f3B5E74E2ED980E2cf953c71B",
  "abi": [
    {
      "inputs": [
        {
          "internalType": "string",
          "name": "baseURI",
          "type": "string"
        }
      ],
      "stateMutability": "nonpayable",
      "type": "constructor"
    },
    {
      "anonymous": false,
      "inputs": [
        {
          "indexed": true,
          "internalType": "address",
          "name": "owner",
          "type": "address"
        },
        {
          "indexed": true,
          "internalType": "address",
          "name": "approved",
          "type": "address"
        },
        {
          "indexed": true,
          "internalType": "uint256",
          "name": "tokenId",
          "type": "uint256"
        }
      ],
      "name": "Approval",
      "type": "event"
    },
    {
      "anonymous": false,
      "inputs": [
        {
          "indexed": true,
          "internalType": "address",
          "name": "owner",
          "type": "address"
        },
        {
          "indexed": true,
          "internalType": "address",
          "name": "operator",
          "type": "address"
        },
        {
          "indexed": false,
          "internalType": "bool",
          "name": "approved",
          "type": "bool"
        }
      ],
      "name": "ApprovalForAll",
      "type": "event"
    },
    {
      "anonymous": false,
      "inputs": [
        {
          "indexed": true,
          "internalType": "address",
          "name": "previousOwner",
          "type": "address"
        },
        {
          "indexed": true,
          "internalType": "address",
          "name": "newOwner",
          "type": "address"
        }
      ],
      "name": "OwnershipTransferred",
      "type": "event"
    },
    {
      "anonymous": false,
      "inputs": [
        {
          "indexed": true,
          "internalType": "address",
          "name": "from",
          "type": "address"
        },
        {
          "indexed": true,
          "internalType": "address",
          "name": "to",
          "type": "address"
        },
        {
          "indexed": true,
          "internalType": "uint256",
          "name": "tokenId",
          "type": "uint256"
        }
      ],
      "name": "Transfer",
      "type": "event"
    },
    {
      "stateMutability": "payable",
      "type": "fallback"
    },
    {
      "inputs": [],
      "name": "_paused",
      "outputs": [
        {
          "internalType": "bool",
          "name": "",
          "type": "bool"
        }
      ],
      "stateMutability": "view",
      "type": "function"
    },
    {
      "inputs": [],
      "name": "_price",
      "outputs": [
        {
          "internalType": "uint256",
          "name": "",
          "type": "uint256"
        }
      ],
      "stateMutability": "view",
      "type": "function"
    },
    {
      "inputs": [
        {
          "internalType": "address",
          "name": "to",
          "type": "address"
        },
        {
          "internalType": "uint256",
          "name": "tokenId",
          "type": "uint256"
        }
      ],
      "name": "approve",
      "outputs": [],
      "stateMutability": "nonpayable",
      "type": "function"
    },
    {
      "inputs": [
        {
          "internalType": "address",
          "name": "owner",
          "type": "address"
        }
      ],
      "name": "balanceOf",
      "outputs": [
        {
          "internalType": "uint256",
          "name": "",
          "type": "uint256"
        }
      ],
      "stateMutability": "view",
      "type": "function"
    },
    {
      "inputs": [
        {
          "internalType": "uint256",
          "name": "tokenId",
          "type": "uint256"
        }
      ],
      "name": "getApproved",
      "outputs": [
        {
          "internalType": "address",
          "name": "",
          "type": "address"
        }
      ],
      "stateMutability": "view",
      "type": "function"
    },
    {
      "inputs": [
        {
          "internalType": "address",
          "name": "owner",
          "type": "address"
        },
        {
          "internalType": "address",
          "name": "operator",
          "type": "address"
        }
      ],
      "name": "isApprovedForAll",
      "outputs": [
        {
          "internalType": "bool",
          "name": "",
          "type": "bool"
        }
      ],
      "stateMutability": "view",
      "type": "function"
    },
    {
      "inputs": [],
      "name": "maxTokenIds",
      "outputs": [
        {
          "internalType": "uint256",
          "name": "",
          "type": "uint256"
        }
      ],
      "stateMutability": "view",
      "type": "function"
    },
    {
      "inputs": [],
      "name": "mint",
      "outputs": [],
      "stateMutability": "payable",
      "type": "function"
    },
    {
      "inputs": [],
      "name": "name",
      "outputs": [
        {
          "internalType": "string",
          "name": "",
          "type": "string"
        }
      ],
      "stateMutability": "view",
      "type": "function"
    },
    {
      "inputs": [],
      "name": "owner",
      "outputs": [
        {
          "internalType": "address",
          "name": "",
          "type": "address"
        }
      ],
      "stateMutability": "view",
      "type": "function"
    },
    {
      "inputs": [
        {
          "internalType": "uint256",
          "name": "tokenId",
          "type": "uint256"
        }
      ],
      "name": "ownerOf",
      "outputs": [
        {
          "internalType": "address",
          "name": "",
          "type": "address"
        }
      ],
      "stateMutability": "view",
      "type": "function"
    },
    {
      "inputs": [],
      "name": "renounceOwnership",
      "outputs": [],
      "stateMutability": "nonpayable",
      "type": "function"
    },
    {
      "inputs": [
        {
          "internalType": "address",
          "name": "from",
          "type": "address"
        },
        {
          "internalType": "address",
          "name": "to",
          "type": "address"
        },
        {
          "internalType": "uint256",
          "name": "tokenId",
          "type": "uint256"
        }
      ],
      "name": "safeTransferFrom",
      "outputs": [],
      "stateMutability": "nonpayable",
      "type": "function"
    },
    {
      "inputs": [
        {
          "internalType": "address",
          "name": "from",
          "type": "address"
        },
        {
          "internalType": "address",
          "name": "to",
          "type": "address"
        },
        {
          "internalType": "uint256",
          "name": "tokenId",
          "type": "uint256"
        },
        {
          "internalType": "bytes",
          "name": "data",
          "type": "bytes"
        }
      ],
      "name": "safeTransferFrom",
      "outputs": [],
      "stateMutability": "nonpayable",
      "type": "function"
    },
    {
      "inputs": [
        {
          "internalType": "address",
          "name": "operator",
          "type": "address"
        },
        {
          "internalType": "bool",
          "name": "approved",
          "type": "bool"
        }
      ],
      "name": "setApprovalForAll",
      "outputs": [],
      "stateMutability": "nonpayable",
      "type": "function"
    },
    {
      "inputs": [
        {
          "internalType": "bool",
          "name": "pauseOrPlay",
          "type": "bool"
        }
      ],
      "name": "setPaused",
      "outputs": [],
      "stateMutability": "nonpayable",
      "type": "function"
    },
    {
      "inputs": [
        {
          "internalType": "bytes4",
          "name": "interfaceId",
          "type": "bytes4"
        }
      ],
      "name": "supportsInterface",
      "outputs": [
        {
          "internalType": "bool",
          "name": "",
          "type": "bool"
        }
      ],
      "stateMutability": "view",
      "type": "function"
    },
    {
      "inputs": [],
      "name": "symbol",
      "outputs": [
        {
          "internalType": "string",
          "name": "",
          "type": "string"
        }
      ],
      "stateMutability": "view",
      "type": "function"
    },
    {
      "inputs": [
        {
          "internalType": "uint256",
          "name": "index",
          "type": "uint256"
        }
      ],
      "name": "tokenByIndex",
      "outputs": [
        {
          "internalType": "uint256",
          "name": "",
          "type": "uint256"
        }
      ],
      "stateMutability": "view",
      "type": "function"
    },
    {
      "inputs": [],
      "name": "tokenIds",
      "outputs": [
        {
          "internalType": "uint256",
          "name": "",
          "type": "uint256"
        }
      ],
      "stateMutability": "view",
      "type": "function"
    },
    {
      "inputs": [
        {
          "internalType": "address",
          "name": "owner",
          "type": "address"
        },
        {
          "internalType": "uint256",
          "name": "index",
          "type": "uint256"
        }
      ],
      "name": "tokenOfOwnerByIndex",
      "outputs": [
        {
          "internalType": "uint256",
          "name": "",
          "type": "uint256"
        }
      ],
      "stateMutability": "view",
      "type": "function"
    },
    {
      "inputs": [
        {
          "internalType": "uint256",
          "name": "tokenId",
          "type": "uint256"
        }
      ],
      "name": "tokenURI",
      "outputs": [
        {
          "internalType": "string",
          "name": "",
          "type": "string"
        }
      ],
      "stateMutability": "view",
      "type": "function"
    },
    {
      "inputs": [],
      "name": "totalSupply",
      "outputs": [
        {
          "internalType": "uint256",
          "name": "",
          "type": "uint256"
        }
      ],
      "stateMutability": "view",
      "type": "function"
    },
    {
      "inputs": [
        {
          "internalType": "address",
          "name": "from",
          "type": "address"
        },
        {
          "internalType": "address",
          "name": "to",
          "type": "address"
        },
        {
          "internalType": "uint256",
          "name": "tokenId",
          "type": "uint256"
        }
      ],
      "name": "transferFrom",
      "outputs": [],
      "stateMutability": "nonpayable",
      "type": "function"
    },
    {
      "inputs": [
        {
          "internalType": "address",
          "name": "newOwner",
          "type": "address"
        }
      ],
      "name": "transferOwnership",
      "outputs": [],
      "stateMutability": "nonpayable",
      "type": "function"
    },
    {
      "inputs": [],
      "name": "withdraw",
      "outputs": [],
      "stateMutability": "nonpayable",
      "type": "function"
    },
    {
      "stateMutability": "payable",
      "type": "receive"
    }
  ],
  "transactionHash": "0x05bd3c9db5b59edf05ccf7a96eccac06b3ccb381acb0ec70bf1f6497fd3d6b6a",
  "args": [
    "ipfs://Qmbygo38DWF1V8GttM1zy89KzyZTPU2FLUzQtiDvB7q6i5/"
  ],
  "numDeployments": 1,
  "solcInputHash": "ec22bf606d19606f53e09370101783ce",
  "bytecode": "0x6080604052600a600d553480156200001657600080fd5b50604051620041ce380380620041ce83398181016040528101906200003c919062000368565b6040518060400160405280600881526020017f4c573350756e6b730000000000000000000000000000000000000000000000008152506040518060400160405280600481526020017f4c573350000000000000000000000000000000000000000000000000000000008152508160009081620000b9919062000604565b508060019081620000cb919062000604565b505050620000ee620000e26200010760201b60201c565b6200010f60201b60201c565b80600b9081620000ff919062000604565b5050620006eb565b600033905090565b6000600a60009054906101000a900473ffffffffffffffffffffffffffffffffffffffff16905081600a60006101000a81548173ffffffffffffffffffffffffffffffffffffffff021916908373ffffffffffffffffffffffffffffffffffffffff1602179055508173ffffffffffffffffffffffffffffffffffffffff168173ffffffffffffffffffffffffffffffffffffffff167f8be0079c531659141344cd1fd0a4f28419497f9722a3daafe3b4186f6b6457e060405160405180910390a35050565b6000604051905090565b600080fd5b600080fd5b600080fd5b600080fd5b6000601f19601f8301169050919050565b7f4e487b7100000000000000000000000000000000000000000000000000000000600052604160045260246000fd5b6200023e82620001f3565b810181811067ffffffffffffffff8211171562000260576200025f62000204565b5b80604052505050565b600062000275620001d5565b905062000283828262000233565b919050565b600067ffffffffffffffff821115620002a657620002a562000204565b5b620002b182620001f3565b9050602081019050919050565b60005b83811015620002de578082015181840152602081019050620002c1565b60008484015250505050565b600062000301620002fb8462000288565b62000269565b90508281526020810184848401111562000320576200031f620001ee565b5b6200032d848285620002be565b509392505050565b600082601f8301126200034d576200034c620001e9565b5b81516200035f848260208601620002ea565b91505092915050565b600060208284031215620003815762000380620001df565b5b600082015167ffffffffffffffff811115620003a257620003a1620001e4565b5b620003b08482850162000335565b91505092915050565b600081519050919050565b7f4e487b7100000000000000000000000000000000000000000000000000000000600052602260045260246000fd5b600060028204905060018216806200040c57607f821691505b602082108103620004225762000421620003c4565b5b50919050565b60008190508160005260206000209050919050565b60006020601f8301049050919050565b600082821b905092915050565b6000600883026200048c7fffffffffffffffffffffffffffffffffffffffffffffffffffffffffffffffff826200044d565b6200049886836200044d565b95508019841693508086168417925050509392505050565b6000819050919050565b6000819050919050565b6000620004e5620004df620004d984620004b0565b620004ba565b620004b0565b9050919050565b6000819050919050565b6200050183620004c4565b620005196200051082620004ec565b8484546200045a565b825550505050565b600090565b6200053062000521565b6200053d818484620004f6565b505050565b5b8181101562000565576200055960008262000526565b60018101905062000543565b5050565b601f821115620005b4576200057e8162000428565b62000589846200043d565b8101602085101562000599578190505b620005b1620005a8856200043d565b83018262000542565b50505b505050565b600082821c905092915050565b6000620005d960001984600802620005b9565b1980831691505092915050565b6000620005f48383620005c6565b9150826002028217905092915050565b6200060f82620003b9565b67ffffffffffffffff8111156200062b576200062a62000204565b5b620006378254620003f3565b6200064482828562000569565b600060209050601f8311600181146200067c576000841562000667578287015190505b620006738582620005e6565b865550620006e3565b601f1984166200068c8662000428565b60005b82811015620006b6578489015182556001820191506020850194506020810190506200068f565b86831015620006d65784890151620006d2601f891682620005c6565b8355505b6001600288020188555050505b505050505050565b613ad380620006fb6000396000f3fe6080604052600436106101855760003560e01c80634f6ccce7116100d15780638da5cb5b1161008a578063b88d4fde11610064578063b88d4fde14610559578063c87b56dd14610582578063e985e9c5146105bf578063f2fde38b146105fc5761018c565b80638da5cb5b146104da57806395d89b4114610505578063a22cb465146105305761018c565b80634f6ccce7146103b65780635f769621146103f35780636352211e1461041e57806370a082311461045b578063714cff5614610498578063715018a6146104c35761018c565b806316c61ccc1161013e57806323b872dd1161011857806323b872dd146103105780632f745c59146103395780633ccfd60b1461037657806342842e0e1461038d5761018c565b806316c61ccc1461028f57806318160ddd146102ba578063235b6ea1146102e55761018c565b806301ffc9a71461018e57806306fdde03146101cb578063081812fc146101f6578063095ea7b3146102335780631249c58b1461025c57806316c38b3c146102665761018c565b3661018c57005b005b34801561019a57600080fd5b506101b560048036038101906101b091906126f4565b610625565b6040516101c2919061273c565b60405180910390f35b3480156101d757600080fd5b506101e061069f565b6040516101ed91906127e7565b60405180910390f35b34801561020257600080fd5b5061021d6004803603810190610218919061283f565b610731565b60405161022a91906128ad565b60405180910390f35b34801561023f57600080fd5b5061025a600480360381019061025591906128f4565b610777565b005b61026461088e565b005b34801561027257600080fd5b5061028d60048036038101906102889190612960565b610996565b005b34801561029b57600080fd5b506102a46109bb565b6040516102b1919061273c565b60405180910390f35b3480156102c657600080fd5b506102cf6109ce565b6040516102dc919061299c565b60405180910390f35b3480156102f157600080fd5b506102fa6109db565b604051610307919061299c565b60405180910390f35b34801561031c57600080fd5b50610337600480360381019061033291906129b7565b6109e6565b005b34801561034557600080fd5b50610360600480360381019061035b91906128f4565b610a46565b60405161036d919061299c565b60405180910390f35b34801561038257600080fd5b5061038b610aeb565b005b34801561039957600080fd5b506103b460048036038101906103af91906129b7565b610bb5565b005b3480156103c257600080fd5b506103dd60048036038101906103d8919061283f565b610bd5565b6040516103ea919061299c565b60405180910390f35b3480156103ff57600080fd5b50610408610c46565b604051610415919061299c565b60405180910390f35b34801561042a57600080fd5b506104456004803603810190610440919061283f565b610c4c565b60405161045291906128ad565b60405180910390f35b34801561046757600080fd5b50610482600480360381019061047d9190612a0a565b610cd2565b60405161048f919061299c565b60405180910390f35b3480156104a457600080fd5b506104ad610d89565b6040516104ba919061299c565b60405180910390f35b3480156104cf57600080fd5b506104d8610d8f565b005b3480156104e657600080fd5b506104ef610da3565b6040516104fc91906128ad565b60405180910390f35b34801561051157600080fd5b5061051a610dcd565b60405161052791906127e7565b60405180910390f35b34801561053c57600080fd5b5061055760048036038101906105529190612a37565b610e5f565b005b34801561056557600080fd5b50610580600480360381019061057b9190612bac565b610e75565b005b34801561058e57600080fd5b506105a960048036038101906105a4919061283f565b610ed7565b6040516105b691906127e7565b60405180910390f35b3480156105cb57600080fd5b506105e660048036038101906105e19190612c2f565b610f7e565b6040516105f3919061273c565b60405180910390f35b34801561060857600080fd5b50610623600480360381019061061e9190612a0a565b611012565b005b60007f780e9d63000000000000000000000000000000000000000000000000000000007bffffffffffffffffffffffffffffffffffffffffffffffffffffffff1916827bffffffffffffffffffffffffffffffffffffffffffffffffffffffff19161480610698575061069782611095565b5b9050919050565b6060600080546106ae90612c9e565b80601f01602080910402602001604051908101604052809291908181526020018280546106da90612c9e565b80156107275780601f106106fc57610100808354040283529160200191610727565b820191906000526020600020905b81548152906001019060200180831161070a57829003601f168201915b5050505050905090565b600061073c82611177565b6004600083815260200190815260200160002060009054906101000a900473ffffffffffffffffffffffffffffffffffffffff169050919050565b600061078282610c4c565b90508073ffffffffffffffffffffffffffffffffffffffff168373ffffffffffffffffffffffffffffffffffffffff16036107f2576040517f08c379a00000000000000000000000000000000000000000000000000000000081526004016107e990612d41565b60405180910390fd5b8073ffffffffffffffffffffffffffffffffffffffff166108116111c2565b73ffffffffffffffffffffffffffffffffffffffff161480610840575061083f8161083a6111c2565b610f7e565b5b61087f576040517f08c379a000000000000000000000000000000000000000000000000000000000815260040161087690612dd3565b60405180910390fd5b61088983836111ca565b505050565b600c60009054906101000a900460ff16156108de576040517f08c379a00000000000000000000000000000000000000000000000000000000081526004016108d590612e3f565b60405180910390fd5b600d54600e5410610924576040517f08c379a000000000000000000000000000000000000000000000000000000000815260040161091b90612eab565b60405180910390fd5b662386f26fc1000034101561096e576040517f08c379a000000000000000000000000000000000000000000000000000000000815260040161096590612f3d565b60405180910390fd5b6001600e60008282546109819190612f8c565b9250508190555061099433600e54611283565b565b61099e6112a1565b80600c60006101000a81548160ff02191690831515021790555050565b600c60009054906101000a900460ff1681565b6000600880549050905090565b662386f26fc1000081565b6109f76109f16111c2565b8261131f565b610a36576040517f08c379a0000000000000000000000000000000000000000000000000000000008152600401610a2d90613032565b60405180910390fd5b610a418383836113b4565b505050565b6000610a5183610cd2565b8210610a92576040517f08c379a0000000000000000000000000000000000000000000000000000000008152600401610a89906130c4565b60405180910390fd5b600660008473ffffffffffffffffffffffffffffffffffffffff1673ffffffffffffffffffffffffffffffffffffffff168152602001908152602001600020600083815260200190815260200160002054905092915050565b610af36112a1565b6000610afd610da3565b9050600047905060008273ffffffffffffffffffffffffffffffffffffffff1682604051610b2a90613115565b60006040518083038185875af1925050503d8060008114610b67576040519150601f19603f3d011682016040523d82523d6000602084013e610b6c565b606091505b5050905080610bb0576040517f08c379a0000000000000000000000000000000000000000000000000000000008152600401610ba790613176565b60405180910390fd5b505050565b610bd083838360405180602001604052806000815250610e75565b505050565b6000610bdf6109ce565b8210610c20576040517f08c379a0000000000000000000000000000000000000000000000000000000008152600401610c1790613208565b60405180910390fd5b60088281548110610c3457610c33613228565b5b90600052602060002001549050919050565b600d5481565b600080610c58836116ad565b9050600073ffffffffffffffffffffffffffffffffffffffff168173ffffffffffffffffffffffffffffffffffffffff1603610cc9576040517f08c379a0000000000000000000000000000000000000000000000000000000008152600401610cc0906132a3565b60405180910390fd5b80915050919050565b60008073ffffffffffffffffffffffffffffffffffffffff168273ffffffffffffffffffffffffffffffffffffffff1603610d42576040517f08c379a0000000000000000000000000000000000000000000000000000000008152600401610d3990613335565b60405180910390fd5b600360008373ffffffffffffffffffffffffffffffffffffffff1673ffffffffffffffffffffffffffffffffffffffff168152602001908152602001600020549050919050565b600e5481565b610d976112a1565b610da160006116ea565b565b6000600a60009054906101000a900473ffffffffffffffffffffffffffffffffffffffff16905090565b606060018054610ddc90612c9e565b80601f0160208091040260200160405190810160405280929190818152602001828054610e0890612c9e565b8015610e555780601f10610e2a57610100808354040283529160200191610e55565b820191906000526020600020905b815481529060010190602001808311610e3857829003601f168201915b5050505050905090565b610e71610e6a6111c2565b83836117b0565b5050565b610e86610e806111c2565b8361131f565b610ec5576040517f08c379a0000000000000000000000000000000000000000000000000000000008152600401610ebc90613032565b60405180910390fd5b610ed18484848461191c565b50505050565b6060610ee282611978565b610f21576040517f08c379a0000000000000000000000000000000000000000000000000000000008152600401610f18906133c7565b60405180910390fd5b6000610f2b6119b9565b90506000815111610f4b5760405180602001604052806000815250610f76565b80610f5584611a4b565b604051602001610f6692919061346f565b6040516020818303038152906040525b915050919050565b6000600560008473ffffffffffffffffffffffffffffffffffffffff1673ffffffffffffffffffffffffffffffffffffffff16815260200190815260200160002060008373ffffffffffffffffffffffffffffffffffffffff1673ffffffffffffffffffffffffffffffffffffffff16815260200190815260200160002060009054906101000a900460ff16905092915050565b61101a6112a1565b600073ffffffffffffffffffffffffffffffffffffffff168173ffffffffffffffffffffffffffffffffffffffff1603611089576040517f08c379a000000000000000000000000000000000000000000000000000000000815260040161108090613510565b60405180910390fd5b611092816116ea565b50565b60007f80ac58cd000000000000000000000000000000000000000000000000000000007bffffffffffffffffffffffffffffffffffffffffffffffffffffffff1916827bffffffffffffffffffffffffffffffffffffffffffffffffffffffff1916148061116057507f5b5e139f000000000000000000000000000000000000000000000000000000007bffffffffffffffffffffffffffffffffffffffffffffffffffffffff1916827bffffffffffffffffffffffffffffffffffffffffffffffffffffffff1916145b80611170575061116f82611b19565b5b9050919050565b61118081611978565b6111bf576040517f08c379a00000000000000000000000000000000000000000000000000000000081526004016111b6906132a3565b60405180910390fd5b50565b600033905090565b816004600083815260200190815260200160002060006101000a81548173ffffffffffffffffffffffffffffffffffffffff021916908373ffffffffffffffffffffffffffffffffffffffff160217905550808273ffffffffffffffffffffffffffffffffffffffff1661123d83610c4c565b73ffffffffffffffffffffffffffffffffffffffff167f8c5be1e5ebec7d5bd14f71427d1e84f3dd0314c0f7b2291e5b200ac8c7c3b92560405160405180910390a45050565b61129d828260405180602001604052806000815250611b83565b5050565b6112a96111c2565b73ffffffffffffffffffffffffffffffffffffffff166112c7610da3565b73ffffffffffffffffffffffffffffffffffffffff161461131d576040517f08c379a00000000000000000000000000000000000000000000000000000000081526004016113149061357c565b60405180910390fd5b565b60008061132b83610c4c565b90508073ffffffffffffffffffffffffffffffffffffffff168473ffffffffffffffffffffffffffffffffffffffff16148061136d575061136c8185610f7e565b5b806113ab57508373ffffffffffffffffffffffffffffffffffffffff1661139384610731565b73ffffffffffffffffffffffffffffffffffffffff16145b91505092915050565b8273ffffffffffffffffffffffffffffffffffffffff166113d482610c4c565b73ffffffffffffffffffffffffffffffffffffffff161461142a576040517f08c379a00000000000000000000000000000000000000000000000000000000081526004016114219061360e565b60405180910390fd5b600073ffffffffffffffffffffffffffffffffffffffff168273ffffffffffffffffffffffffffffffffffffffff1603611499576040517f08c379a0000000000000000000000000000000000000000000000000000000008152600401611490906136a0565b60405180910390fd5b6114a68383836001611bde565b8273ffffffffffffffffffffffffffffffffffffffff166114c682610c4c565b73ffffffffffffffffffffffffffffffffffffffff161461151c576040517f08c379a00000000000000000000000000000000000000000000000000000000081526004016115139061360e565b60405180910390fd5b6004600082815260200190815260200160002060006101000a81549073ffffffffffffffffffffffffffffffffffffffff02191690556001600360008573ffffffffffffffffffffffffffffffffffffffff1673ffffffffffffffffffffffffffffffffffffffff168152602001908152602001600020600082825403925050819055506001600360008473ffffffffffffffffffffffffffffffffffffffff1673ffffffffffffffffffffffffffffffffffffffff16815260200190815260200160002060008282540192505081905550816002600083815260200190815260200160002060006101000a81548173ffffffffffffffffffffffffffffffffffffffff021916908373ffffffffffffffffffffffffffffffffffffffff160217905550808273ffffffffffffffffffffffffffffffffffffffff168473ffffffffffffffffffffffffffffffffffffffff167fddf252ad1be2c89b69c2b068fc378daa952ba7f163c4a11628f55a4df523b3ef60405160405180910390a46116a88383836001611d3c565b505050565b60006002600083815260200190815260200160002060009054906101000a900473ffffffffffffffffffffffffffffffffffffffff169050919050565b6000600a60009054906101000a900473ffffffffffffffffffffffffffffffffffffffff16905081600a60006101000a81548173ffffffffffffffffffffffffffffffffffffffff021916908373ffffffffffffffffffffffffffffffffffffffff1602179055508173ffffffffffffffffffffffffffffffffffffffff168173ffffffffffffffffffffffffffffffffffffffff167f8be0079c531659141344cd1fd0a4f28419497f9722a3daafe3b4186f6b6457e060405160405180910390a35050565b8173ffffffffffffffffffffffffffffffffffffffff168373ffffffffffffffffffffffffffffffffffffffff160361181e576040517f08c379a00000000000000000000000000000000000000000000000000000000081526004016118159061370c565b60405180910390fd5b80600560008573ffffffffffffffffffffffffffffffffffffffff1673ffffffffffffffffffffffffffffffffffffffff16815260200190815260200160002060008473ffffffffffffffffffffffffffffffffffffffff1673ffffffffffffffffffffffffffffffffffffffff16815260200190815260200160002060006101000a81548160ff0219169083151502179055508173ffffffffffffffffffffffffffffffffffffffff168373ffffffffffffffffffffffffffffffffffffffff167f17307eab39ab6107e8899845ad3d59bd9653f200f220920489ca2b5937696c318360405161190f919061273c565b60405180910390a3505050565b6119278484846113b4565b61193384848484611d42565b611972576040517f08c379a00000000000000000000000000000000000000000000000000000000081526004016119699061379e565b60405180910390fd5b50505050565b60008073ffffffffffffffffffffffffffffffffffffffff1661199a836116ad565b73ffffffffffffffffffffffffffffffffffffffff1614159050919050565b6060600b80546119c890612c9e565b80601f01602080910402602001604051908101604052809291908181526020018280546119f490612c9e565b8015611a415780601f10611a1657610100808354040283529160200191611a41565b820191906000526020600020905b815481529060010190602001808311611a2457829003601f168201915b5050505050905090565b606060006001611a5a84611ec9565b01905060008167ffffffffffffffff811115611a7957611a78612a81565b5b6040519080825280601f01601f191660200182016040528015611aab5781602001600182028036833780820191505090505b509050600082602001820190505b600115611b0e578080600190039150507f3031323334353637383961626364656600000000000000000000000000000000600a86061a8153600a8581611b0257611b016137be565b5b04945060008503611ab9575b819350505050919050565b60007f01ffc9a7000000000000000000000000000000000000000000000000000000007bffffffffffffffffffffffffffffffffffffffffffffffffffffffff1916827bffffffffffffffffffffffffffffffffffffffffffffffffffffffff1916149050919050565b611b8d838361201c565b611b9a6000848484611d42565b611bd9576040517f08c379a0000000000000000000000000000000000000000000000000000000008152600401611bd09061379e565b60405180910390fd5b505050565b611bea84848484612239565b6001811115611c2e576040517f08c379a0000000000000000000000000000000000000000000000000000000008152600401611c259061385f565b60405180910390fd5b6000829050600073ffffffffffffffffffffffffffffffffffffffff168573ffffffffffffffffffffffffffffffffffffffff1603611c7557611c708161235f565b611cb4565b8373ffffffffffffffffffffffffffffffffffffffff168573ffffffffffffffffffffffffffffffffffffffff1614611cb357611cb285826123a8565b5b5b600073ffffffffffffffffffffffffffffffffffffffff168473ffffffffffffffffffffffffffffffffffffffff1603611cf657611cf181612515565b611d35565b8473ffffffffffffffffffffffffffffffffffffffff168473ffffffffffffffffffffffffffffffffffffffff1614611d3457611d3384826125e6565b5b5b5050505050565b50505050565b6000611d638473ffffffffffffffffffffffffffffffffffffffff16612665565b15611ebc578373ffffffffffffffffffffffffffffffffffffffff1663150b7a02611d8c6111c2565b8786866040518563ffffffff1660e01b8152600401611dae94939291906138d4565b6020604051808303816000875af1925050508015611dea57506040513d601f19601f82011682018060405250810190611de79190613935565b60015b611e6c573d8060008114611e1a576040519150601f19603f3d011682016040523d82523d6000602084013e611e1f565b606091505b506000815103611e64576040517f08c379a0000000000000000000000000000000000000000000000000000000008152600401611e5b9061379e565b60405180910390fd5b805181602001fd5b63150b7a0260e01b7bffffffffffffffffffffffffffffffffffffffffffffffffffffffff1916817bffffffffffffffffffffffffffffffffffffffffffffffffffffffff191614915050611ec1565b600190505b949350505050565b600080600090507a184f03e93ff9f4daa797ed6e38ed64bf6a1f0100000000000000008310611f27577a184f03e93ff9f4daa797ed6e38ed64bf6a1f0100000000000000008381611f1d57611f1c6137be565b5b0492506040810190505b6d04ee2d6d415b85acef81000000008310611f64576d04ee2d6d415b85acef81000000008381611f5a57611f596137be565b5b0492506020810190505b662386f26fc100008310611f9357662386f26fc100008381611f8957611f886137be565b5b0492506010810190505b6305f5e1008310611fbc576305f5e1008381611fb257611fb16137be565b5b0492506008810190505b6127108310611fe1576127108381611fd757611fd66137be565b5b0492506004810190505b606483106120045760648381611ffa57611ff96137be565b5b0492506002810190505b600a8310612013576001810190505b80915050919050565b600073ffffffffffffffffffffffffffffffffffffffff168273ffffffffffffffffffffffffffffffffffffffff160361208b576040517f08c379a0000000000000000000000000000000000000000000000000000000008152600401612082906139ae565b60405180910390fd5b61209481611978565b156120d4576040517f08c379a00000000000000000000000000000000000000000000000000000000081526004016120cb90613a1a565b60405180910390fd5b6120e2600083836001611bde565b6120eb81611978565b1561212b576040517f08c379a000000000000000000000000000000000000000000000000000000000815260040161212290613a1a565b60405180910390fd5b6001600360008473ffffffffffffffffffffffffffffffffffffffff1673ffffffffffffffffffffffffffffffffffffffff16815260200190815260200160002060008282540192505081905550816002600083815260200190815260200160002060006101000a81548173ffffffffffffffffffffffffffffffffffffffff021916908373ffffffffffffffffffffffffffffffffffffffff160217905550808273ffffffffffffffffffffffffffffffffffffffff16600073ffffffffffffffffffffffffffffffffffffffff167fddf252ad1be2c89b69c2b068fc378daa952ba7f163c4a11628f55a4df523b3ef60405160405180910390a4612235600083836001611d3c565b5050565b600181111561235957600073ffffffffffffffffffffffffffffffffffffffff168473ffffffffffffffffffffffffffffffffffffffff16146122cd5780600360008673ffffffffffffffffffffffffffffffffffffffff1673ffffffffffffffffffffffffffffffffffffffff16815260200190815260200160002060008282546122c59190613a3a565b925050819055505b600073ffffffffffffffffffffffffffffffffffffffff168373ffffffffffffffffffffffffffffffffffffffff16146123585780600360008573ffffffffffffffffffffffffffffffffffffffff1673ffffffffffffffffffffffffffffffffffffffff16815260200190815260200160002060008282546123509190612f8c565b925050819055505b5b50505050565b6008805490506009600083815260200190815260200160002081905550600881908060018154018082558091505060019003906000526020600020016000909190919091505550565b600060016123b584610cd2565b6123bf9190613a3a565b90506000600760008481526020019081526020016000205490508181146124a4576000600660008673ffffffffffffffffffffffffffffffffffffffff1673ffffffffffffffffffffffffffffffffffffffff168152602001908152602001600020600084815260200190815260200160002054905080600660008773ffffffffffffffffffffffffffffffffffffffff1673ffffffffffffffffffffffffffffffffffffffff168152602001908152602001600020600084815260200190815260200160002081905550816007600083815260200190815260200160002081905550505b6007600084815260200190815260200160002060009055600660008573ffffffffffffffffffffffffffffffffffffffff1673ffffffffffffffffffffffffffffffffffffffff16815260200190815260200160002060008381526020019081526020016000206000905550505050565b600060016008805490506125299190613a3a565b905060006009600084815260200190815260200160002054905060006008838154811061255957612558613228565b5b90600052602060002001549050806008838154811061257b5761257a613228565b5b9060005260206000200181905550816009600083815260200190815260200160002081905550600960008581526020019081526020016000206000905560088054806125ca576125c9613a6e565b5b6001900381819060005260206000200160009055905550505050565b60006125f183610cd2565b905081600660008573ffffffffffffffffffffffffffffffffffffffff1673ffffffffffffffffffffffffffffffffffffffff168152602001908152602001600020600083815260200190815260200160002081905550806007600084815260200190815260200160002081905550505050565b6000808273ffffffffffffffffffffffffffffffffffffffff163b119050919050565b6000604051905090565b600080fd5b600080fd5b60007fffffffff0000000000000000000000000000000000000000000000000000000082169050919050565b6126d18161269c565b81146126dc57600080fd5b50565b6000813590506126ee816126c8565b92915050565b60006020828403121561270a57612709612692565b5b6000612718848285016126df565b91505092915050565b60008115159050919050565b61273681612721565b82525050565b6000602082019050612751600083018461272d565b92915050565b600081519050919050565b600082825260208201905092915050565b60005b83811015612791578082015181840152602081019050612776565b60008484015250505050565b6000601f19601f8301169050919050565b60006127b982612757565b6127c38185612762565b93506127d3818560208601612773565b6127dc8161279d565b840191505092915050565b6000602082019050818103600083015261280181846127ae565b905092915050565b6000819050919050565b61281c81612809565b811461282757600080fd5b50565b60008135905061283981612813565b92915050565b60006020828403121561285557612854612692565b5b60006128638482850161282a565b91505092915050565b600073ffffffffffffffffffffffffffffffffffffffff82169050919050565b60006128978261286c565b9050919050565b6128a78161288c565b82525050565b60006020820190506128c2600083018461289e565b92915050565b6128d18161288c565b81146128dc57600080fd5b50565b6000813590506128ee816128c8565b92915050565b6000806040838503121561290b5761290a612692565b5b6000612919858286016128df565b925050602061292a8582860161282a565b9150509250929050565b61293d81612721565b811461294857600080fd5b50565b60008135905061295a81612934565b92915050565b60006020828403121561297657612975612692565b5b60006129848482850161294b565b91505092915050565b61299681612809565b82525050565b60006020820190506129b1600083018461298d565b92915050565b6000806000606084860312156129d0576129cf612692565b5b60006129de868287016128df565b93505060206129ef868287016128df565b9250506040612a008682870161282a565b9150509250925092565b600060208284031215612a2057612a1f612692565b5b6000612a2e848285016128df565b91505092915050565b60008060408385031215612a4e57612a4d612692565b5b6000612a5c858286016128df565b9250506020612a6d8582860161294b565b9150509250929050565b600080fd5b600080fd5b7f4e487b7100000000000000000000000000000000000000000000000000000000600052604160045260246000fd5b612ab98261279d565b810181811067ffffffffffffffff82111715612ad857612ad7612a81565b5b80604052505050565b6000612aeb612688565b9050612af78282612ab0565b919050565b600067ffffffffffffffff821115612b1757612b16612a81565b5b612b208261279d565b9050602081019050919050565b82818337600083830152505050565b6000612b4f612b4a84612afc565b612ae1565b905082815260208101848484011115612b6b57612b6a612a7c565b5b612b76848285612b2d565b509392505050565b600082601f830112612b9357612b92612a77565b5b8135612ba3848260208601612b3c565b91505092915050565b60008060008060808587031215612bc657612bc5612692565b5b6000612bd4878288016128df565b9450506020612be5878288016128df565b9350506040612bf68782880161282a565b925050606085013567ffffffffffffffff811115612c1757612c16612697565b5b612c2387828801612b7e565b91505092959194509250565b60008060408385031215612c4657612c45612692565b5b6000612c54858286016128df565b9250506020612c65858286016128df565b9150509250929050565b7f4e487b7100000000000000000000000000000000000000000000000000000000600052602260045260246000fd5b60006002820490506001821680612cb657607f821691505b602082108103612cc957612cc8612c6f565b5b50919050565b7f4552433732313a20617070726f76616c20746f2063757272656e74206f776e6560008201527f7200000000000000000000000000000000000000000000000000000000000000602082015250565b6000612d2b602183612762565b9150612d3682612ccf565b604082019050919050565b60006020820190508181036000830152612d5a81612d1e565b9050919050565b7f4552433732313a20617070726f76652063616c6c6572206973206e6f7420746f60008201527f6b656e206f776e6572206f7220617070726f76656420666f7220616c6c000000602082015250565b6000612dbd603d83612762565b9150612dc882612d61565b604082019050919050565b60006020820190508181036000830152612dec81612db0565b9050919050565b7f436f6e74726163742063757272656e746c792070617573656400000000000000600082015250565b6000612e29601983612762565b9150612e3482612df3565b602082019050919050565b60006020820190508181036000830152612e5881612e1c565b9050919050565b7f4268616920746f206c696d69742063726f7373206b7220726861206800000000600082015250565b6000612e95601c83612762565b9150612ea082612e5f565b602082019050919050565b60006020820190508181036000830152612ec481612e88565b9050919050565b7f706f6f726120706169736520646520626861692061697365206e68692063686160008201527f6c65676100000000000000000000000000000000000000000000000000000000602082015250565b6000612f27602483612762565b9150612f3282612ecb565b604082019050919050565b60006020820190508181036000830152612f5681612f1a565b9050919050565b7f4e487b7100000000000000000000000000000000000000000000000000000000600052601160045260246000fd5b6000612f9782612809565b9150612fa283612809565b9250828201905080821115612fba57612fb9612f5d565b5b92915050565b7f4552433732313a2063616c6c6572206973206e6f7420746f6b656e206f776e6560008201527f72206f7220617070726f76656400000000000000000000000000000000000000602082015250565b600061301c602d83612762565b915061302782612fc0565b604082019050919050565b6000602082019050818103600083015261304b8161300f565b9050919050565b7f455243373231456e756d657261626c653a206f776e657220696e646578206f7560008201527f74206f6620626f756e6473000000000000000000000000000000000000000000602082015250565b60006130ae602b83612762565b91506130b982613052565b604082019050919050565b600060208201905081810360008301526130dd816130a1565b9050919050565b600081905092915050565b50565b60006130ff6000836130e4565b915061310a826130ef565b600082019050919050565b6000613120826130f2565b9150819050919050565b7f4661696c656420746f2073656e64206574686572000000000000000000000000600082015250565b6000613160601483612762565b915061316b8261312a565b602082019050919050565b6000602082019050818103600083015261318f81613153565b9050919050565b7f455243373231456e756d657261626c653a20676c6f62616c20696e646578206f60008201527f7574206f6620626f756e64730000000000000000000000000000000000000000602082015250565b60006131f2602c83612762565b91506131fd82613196565b604082019050919050565b60006020820190508181036000830152613221816131e5565b9050919050565b7f4e487b7100000000000000000000000000000000000000000000000000000000600052603260045260246000fd5b7f4552433732313a20696e76616c696420746f6b656e2049440000000000000000600082015250565b600061328d601883612762565b915061329882613257565b602082019050919050565b600060208201905081810360008301526132bc81613280565b9050919050565b7f4552433732313a2061646472657373207a65726f206973206e6f74206120766160008201527f6c6964206f776e65720000000000000000000000000000000000000000000000602082015250565b600061331f602983612762565b915061332a826132c3565b604082019050919050565b6000602082019050818103600083015261334e81613312565b9050919050565b7f4552433732314d657461646174613a2055524920717565727920666f72206e6f60008201527f6e6578697374656e7420746f6b656e2d52616e646f6d20424b43000000000000602082015250565b60006133b1603a83612762565b91506133bc82613355565b604082019050919050565b600060208201905081810360008301526133e0816133a4565b9050919050565b600081905092915050565b60006133fd82612757565b61340781856133e7565b9350613417818560208601612773565b80840191505092915050565b7f2e6a736f6e000000000000000000000000000000000000000000000000000000600082015250565b60006134596005836133e7565b915061346482613423565b600582019050919050565b600061347b82856133f2565b915061348782846133f2565b91506134928261344c565b91508190509392505050565b7f4f776e61626c653a206e6577206f776e657220697320746865207a65726f206160008201527f6464726573730000000000000000000000000000000000000000000000000000602082015250565b60006134fa602683612762565b91506135058261349e565b604082019050919050565b60006020820190508181036000830152613529816134ed565b9050919050565b7f4f776e61626c653a2063616c6c6572206973206e6f7420746865206f776e6572600082015250565b6000613566602083612762565b915061357182613530565b602082019050919050565b6000602082019050818103600083015261359581613559565b9050919050565b7f4552433732313a207472616e736665722066726f6d20696e636f72726563742060008201527f6f776e6572000000000000000000000000000000000000000000000000000000602082015250565b60006135f8602583612762565b91506136038261359c565b604082019050919050565b60006020820190508181036000830152613627816135eb565b9050919050565b7f4552433732313a207472616e7366657220746f20746865207a65726f2061646460008201527f7265737300000000000000000000000000000000000000000000000000000000602082015250565b600061368a602483612762565b91506136958261362e565b604082019050919050565b600060208201905081810360008301526136b98161367d565b9050919050565b7f4552433732313a20617070726f766520746f2063616c6c657200000000000000600082015250565b60006136f6601983612762565b9150613701826136c0565b602082019050919050565b60006020820190508181036000830152613725816136e9565b9050919050565b7f4552433732313a207472616e7366657220746f206e6f6e20455243373231526560008201527f63656976657220696d706c656d656e7465720000000000000000000000000000602082015250565b6000613788603283612762565b91506137938261372c565b604082019050919050565b600060208201905081810360008301526137b78161377b565b9050919050565b7f4e487b7100000000000000000000000000000000000000000000000000000000600052601260045260246000fd5b7f455243373231456e756d657261626c653a20636f6e736563757469766520747260008201527f616e7366657273206e6f7420737570706f727465640000000000000000000000602082015250565b6000613849603583612762565b9150613854826137ed565b604082019050919050565b600060208201905081810360008301526138788161383c565b9050919050565b600081519050919050565b600082825260208201905092915050565b60006138a68261387f565b6138b0818561388a565b93506138c0818560208601612773565b6138c98161279d565b840191505092915050565b60006080820190506138e9600083018761289e565b6138f6602083018661289e565b613903604083018561298d565b8181036060830152613915818461389b565b905095945050505050565b60008151905061392f816126c8565b92915050565b60006020828403121561394b5761394a612692565b5b600061395984828501613920565b91505092915050565b7f4552433732313a206d696e7420746f20746865207a65726f2061646472657373600082015250565b6000613998602083612762565b91506139a382613962565b602082019050919050565b600060208201905081810360008301526139c78161398b565b9050919050565b7f4552433732313a20746f6b656e20616c7265616479206d696e74656400000000600082015250565b6000613a04601c83612762565b9150613a0f826139ce565b602082019050919050565b60006020820190508181036000830152613a33816139f7565b9050919050565b6000613a4582612809565b9150613a5083612809565b9250828203905081811115613a6857613a67612f5d565b5b92915050565b7f4e487b7100000000000000000000000000000000000000000000000000000000600052603160045260246000fdfea26469706673582212206e69e643846561b4cd2f84e84777d2dac5fdb20219c89e36091c2a6a210b14ec64736f6c63430008110033",
  "devdoc": {
    "kind": "dev",
    "methods": {
      "approve(address,uint256)": {
        "details": "See {IERC721-approve}."
      },
      "balanceOf(address)": {
        "details": "See {IERC721-balanceOf}."
      },
      "getApproved(uint256)": {
        "details": "See {IERC721-getApproved}."
      },
      "isApprovedForAll(address,address)": {
        "details": "See {IERC721-isApprovedForAll}."
      },
      "name()": {
        "details": "See {IERC721Metadata-name}."
      },
      "owner()": {
        "details": "Returns the address of the current owner."
      },
      "ownerOf(uint256)": {
        "details": "See {IERC721-ownerOf}."
      },
      "renounceOwnership()": {
        "details": "Leaves the contract without owner. It will not be possible to call `onlyOwner` functions anymore. Can only be called by the current owner. NOTE: Renouncing ownership will leave the contract without an owner, thereby removing any functionality that is only available to the owner."
      },
      "safeTransferFrom(address,address,uint256)": {
        "details": "See {IERC721-safeTransferFrom}."
      },
      "safeTransferFrom(address,address,uint256,bytes)": {
        "details": "See {IERC721-safeTransferFrom}."
      },
      "setApprovalForAll(address,bool)": {
        "details": "See {IERC721-setApprovalForAll}."
      },
      "supportsInterface(bytes4)": {
        "details": "See {IERC165-supportsInterface}."
      },
      "symbol()": {
        "details": "See {IERC721Metadata-symbol}."
      },
      "tokenByIndex(uint256)": {
        "details": "See {IERC721Enumerable-tokenByIndex}."
      },
      "tokenOfOwnerByIndex(address,uint256)": {
        "details": "See {IERC721Enumerable-tokenOfOwnerByIndex}."
      },
      "tokenURI(uint256)": {
        "details": "See {IERC721Metadata-tokenURI}."
      },
      "totalSupply()": {
        "details": "See {IERC721Enumerable-totalSupply}."
      },
      "transferFrom(address,address,uint256)": {
        "details": "See {IERC721-transferFrom}."
      },
      "transferOwnership(address)": {
        "details": "Transfers ownership of the contract to a new account (`newOwner`). Can only be called by the current owner."
      }
    },
    "version": 1
  },
  "userdoc": {
    "kind": "user",
    "methods": {},
    "version": 1
  },
  "storageLayout": {
    "storage": [
      {
        "astId": 138,
        "contract": "contracts/LW3Punks.sol:LW3Punks",
        "label": "_name",
        "offset": 0,
        "slot": "0",
        "type": "t_string_storage"
      },
      {
        "astId": 140,
        "contract": "contracts/LW3Punks.sol:LW3Punks",
        "label": "_symbol",
        "offset": 0,
        "slot": "1",
        "type": "t_string_storage"
      },
      {
        "astId": 144,
        "contract": "contracts/LW3Punks.sol:LW3Punks",
        "label": "_owners",
        "offset": 0,
        "slot": "2",
        "type": "t_mapping(t_uint256,t_address)"
      },
      {
        "astId": 148,
        "contract": "contracts/LW3Punks.sol:LW3Punks",
        "label": "_balances",
        "offset": 0,
        "slot": "3",
        "type": "t_mapping(t_address,t_uint256)"
      },
      {
        "astId": 152,
        "contract": "contracts/LW3Punks.sol:LW3Punks",
        "label": "_tokenApprovals",
        "offset": 0,
        "slot": "4",
        "type": "t_mapping(t_uint256,t_address)"
      },
      {
        "astId": 158,
        "contract": "contracts/LW3Punks.sol:LW3Punks",
        "label": "_operatorApprovals",
        "offset": 0,
        "slot": "5",
        "type": "t_mapping(t_address,t_mapping(t_address,t_bool))"
      },
      {
        "astId": 1206,
        "contract": "contracts/LW3Punks.sol:LW3Punks",
        "label": "_ownedTokens",
        "offset": 0,
        "slot": "6",
        "type": "t_mapping(t_address,t_mapping(t_uint256,t_uint256))"
      },
      {
        "astId": 1210,
        "contract": "contracts/LW3Punks.sol:LW3Punks",
        "label": "_ownedTokensIndex",
        "offset": 0,
        "slot": "7",
        "type": "t_mapping(t_uint256,t_uint256)"
      },
      {
        "astId": 1213,
        "contract": "contracts/LW3Punks.sol:LW3Punks",
        "label": "_allTokens",
        "offset": 0,
        "slot": "8",
        "type": "t_array(t_uint256)dyn_storage"
      },
      {
        "astId": 1217,
        "contract": "contracts/LW3Punks.sol:LW3Punks",
        "label": "_allTokensIndex",
        "offset": 0,
        "slot": "9",
        "type": "t_mapping(t_uint256,t_uint256)"
      },
      {
        "astId": 7,
        "contract": "contracts/LW3Punks.sol:LW3Punks",
        "label": "_owner",
        "offset": 0,
        "slot": "10",
        "type": "t_address"
      },
      {
        "astId": 3045,
        "contract": "contracts/LW3Punks.sol:LW3Punks",
        "label": "_baseTokenURI",
        "offset": 0,
        "slot": "11",
        "type": "t_string_storage"
      },
      {
        "astId": 3050,
        "contract": "contracts/LW3Punks.sol:LW3Punks",
        "label": "_paused",
        "offset": 0,
        "slot": "12",
        "type": "t_bool"
      },
      {
        "astId": 3053,
        "contract": "contracts/LW3Punks.sol:LW3Punks",
        "label": "maxTokenIds",
        "offset": 0,
        "slot": "13",
        "type": "t_uint256"
      },
      {
        "astId": 3055,
        "contract": "contracts/LW3Punks.sol:LW3Punks",
        "label": "tokenIds",
        "offset": 0,
        "slot": "14",
        "type": "t_uint256"
      }
    ],
    "types": {
      "t_address": {
        "encoding": "inplace",
        "label": "address",
        "numberOfBytes": "20"
      },
      "t_array(t_uint256)dyn_storage": {
        "base": "t_uint256",
        "encoding": "dynamic_array",
        "label": "uint256[]",
        "numberOfBytes": "32"
      },
      "t_bool": {
        "encoding": "inplace",
        "label": "bool",
        "numberOfBytes": "1"
      },
      "t_mapping(t_address,t_bool)": {
        "encoding": "mapping",
        "key": "t_address",
        "label": "mapping(address => bool)",
        "numberOfBytes": "32",
        "value": "t_bool"
      },
      "t_mapping(t_address,t_mapping(t_address,t_bool))": {
        "encoding": "mapping",
        "key": "t_address",
        "label": "mapping(address => mapping(address => bool))",
        "numberOfBytes": "32",
        "value": "t_mapping(t_address,t_bool)"
      },
      "t_mapping(t_address,t_mapping(t_uint256,t_uint256))": {
        "encoding": "mapping",
        "key": "t_address",
        "label": "mapping(address => mapping(uint256 => uint256))",
        "numberOfBytes": "32",
        "value": "t_mapping(t_uint256,t_uint256)"
      },
      "t_mapping(t_address,t_uint256)": {
        "encoding": "mapping",
        "key": "t_address",
        "label": "mapping(address => uint256)",
        "numberOfBytes": "32",
        "value": "t_uint256"
      },
      "t_mapping(t_uint256,t_address)": {
        "encoding": "mapping",
        "key": "t_uint256",
        "label": "mapping(uint256 => address)",
        "numberOfBytes": "32",
        "value": "t_address"
      },
      "t_mapping(t_uint256,t_uint256)": {
        "encoding": "mapping",
        "key": "t_uint256",
        "label": "mapping(uint256 => uint256)",
        "numberOfBytes": "32",
        "value": "t_uint256"
      },
      "t_string_storage": {
        "encoding": "bytes",
        "label": "string",
        "numberOfBytes": "32"
      },
      "t_uint256": {
        "encoding": "inplace",
        "label": "uint256",
        "numberOfBytes": "32"
      }
    }
  }
}