{
  "address": "0x6Ea755871D5421F8E6fDfe74984AE22e09843Be4",
  "abi": [
    {
      "inputs": [
        {
          "internalType": "address",
          "name": "vrfCoordinator",
          "type": "address"
        },
        {
          "internalType": "address",
          "name": "linkToken",
          "type": "address"
        },
        {
          "internalType": "bytes32",
          "name": "vrfKeyHash",
          "type": "bytes32"
        },
        {
          "internalType": "uint256",
          "name": "vrfFee",
          "type": "uint256"
        }
      ],
      "stateMutability": "nonpayable",
      "type": "constructor"
    },
    {
      "anonymous": false,
      "inputs": [
        {
          "indexed": false,
          "internalType": "uint256",
          "name": "gameId",
          "type": "uint256"
        },
        {
          "indexed": false,
          "internalType": "address",
          "name": "winner",
          "type": "address"
        },
        {
          "indexed": false,
          "internalType": "bytes32",
          "name": "requestId",
          "type": "bytes32"
        }
      ],
      "name": "GameEnded",
      "type": "event"
    },
    {
      "anonymous": false,
      "inputs": [
        {
          "indexed": false,
          "internalType": "uint256",
          "name": "gameId",
          "type": "uint256"
        },
        {
          "indexed": false,
          "internalType": "uint8",
          "name": "maxPlayers",
          "type": "uint8"
        },
        {
          "indexed": false,
          "internalType": "uint256",
          "name": "entryFee",
          "type": "uint256"
        }
      ],
      "name": "GameStarted",
      "type": "event"
    },
    {
      "anonymous": false,
      "inputs": [
        {
          "indexed": true,
          "internalType": "address",
          "name": "previousOwner",
          "type": "address"
        },
        {
          "indexed": true,
          "internalType": "address",
          "name": "newOwner",
          "type": "address"
        }
      ],
      "name": "OwnershipTransferred",
      "type": "event"
    },
    {
      "anonymous": false,
      "inputs": [
        {
          "indexed": false,
          "internalType": "uint256",
          "name": "gameId",
          "type": "uint256"
        },
        {
          "indexed": false,
          "internalType": "address",
          "name": "player",
          "type": "address"
        }
      ],
      "name": "PlayerJoined",
      "type": "event"
    },
    {
      "stateMutability": "payable",
      "type": "fallback"
    },
    {
      "inputs": [],
      "name": "fee",
      "outputs": [
        {
          "internalType": "uint256",
          "name": "",
          "type": "uint256"
        }
      ],
      "stateMutability": "view",
      "type": "function"
    },
    {
      "inputs": [],
      "name": "gameId",
      "outputs": [
        {
          "internalType": "uint256",
          "name": "",
          "type": "uint256"
        }
      ],
      "stateMutability": "view",
      "type": "function"
    },
    {
      "inputs": [],
      "name": "gameStarted",
      "outputs": [
        {
          "internalType": "bool",
          "name": "",
          "type": "bool"
        }
      ],
      "stateMutability": "view",
      "type": "function"
    },
    {
      "inputs": [],
      "name": "joinGame",
      "outputs": [],
      "stateMutability": "payable",
      "type": "function"
    },
    {
      "inputs": [],
      "name": "keyHash",
      "outputs": [
        {
          "internalType": "bytes32",
          "name": "",
          "type": "bytes32"
        }
      ],
      "stateMutability": "view",
      "type": "function"
    },
    {
      "inputs": [],
      "name": "owner",
      "outputs": [
        {
          "internalType": "address",
          "name": "",
          "type": "address"
        }
      ],
      "stateMutability": "view",
      "type": "function"
    },
    {
      "inputs": [
        {
          "internalType": "uint256",
          "name": "",
          "type": "uint256"
        }
      ],
      "name": "players",
      "outputs": [
        {
          "internalType": "address",
          "name": "",
          "type": "address"
        }
      ],
      "stateMutability": "view",
      "type": "function"
    },
    {
      "inputs": [
        {
          "internalType": "bytes32",
          "name": "requestId",
          "type": "bytes32"
        },
        {
          "internalType": "uint256",
          "name": "randomness",
          "type": "uint256"
        }
      ],
      "name": "rawFulfillRandomness",
      "outputs": [],
      "stateMutability": "nonpayable",
      "type": "function"
    },
    {
      "inputs": [],
      "name": "renounceOwnership",
      "outputs": [],
      "stateMutability": "nonpayable",
      "type": "function"
    },
    {
      "inputs": [
        {
          "internalType": "uint8",
          "name": "_maxPlayers",
          "type": "uint8"
        },
        {
          "internalType": "uint256",
          "name": "_entryFee",
          "type": "uint256"
        }
      ],
      "name": "startGame",
      "outputs": [],
      "stateMutability": "nonpayable",
      "type": "function"
    },
    {
      "inputs": [
        {
          "internalType": "address",
          "name": "newOwner",
          "type": "address"
        }
      ],
      "name": "transferOwnership",
      "outputs": [],
      "stateMutability": "nonpayable",
      "type": "function"
    },
    {
      "stateMutability": "payable",
      "type": "receive"
    }
  ],
  "transactionHash": "0xb2e37333850240a91975bcf9558c23f2abf8fb2d6420b54b6e63a8d03d9609b3",
  "args": [
    "0x8C7382F9D8f56b33781fE506E897a4F1e2d17255",
    "0x326C977E6efc84E512bB9C30f76E30c160eD06FB",
    "0x6e75b569a01ef56d18cab6a8e71e6600d6ce853834d4a5748b720d06f878b3a4",
    "100000000000000"
  ],
  "numDeployments": 1,
  "solcInputHash": "863aac8413a596009e5fde588b5acdff",
  "bytecode": "0x60c06040523480156200001157600080fd5b50604051620019ea380380620019ea8339818101604052810190620000379190620002a4565b83838173ffffffffffffffffffffffffffffffffffffffff1660a08173ffffffffffffffffffffffffffffffffffffffff16815250508073ffffffffffffffffffffffffffffffffffffffff1660808173ffffffffffffffffffffffffffffffffffffffff16815250505050620000c3620000b7620000f660201b60201c565b620000fe60201b60201c565b81600381905550806002819055506000600560016101000a81548160ff0219169083151502179055505050505062000316565b600033905090565b6000600160009054906101000a900473ffffffffffffffffffffffffffffffffffffffff16905081600160006101000a81548173ffffffffffffffffffffffffffffffffffffffff021916908373ffffffffffffffffffffffffffffffffffffffff1602179055508173ffffffffffffffffffffffffffffffffffffffff168173ffffffffffffffffffffffffffffffffffffffff167f8be0079c531659141344cd1fd0a4f28419497f9722a3daafe3b4186f6b6457e060405160405180910390a35050565b600080fd5b600073ffffffffffffffffffffffffffffffffffffffff82169050919050565b6000620001f682620001c9565b9050919050565b6200020881620001e9565b81146200021457600080fd5b50565b6000815190506200022881620001fd565b92915050565b6000819050919050565b62000243816200022e565b81146200024f57600080fd5b50565b600081519050620002638162000238565b92915050565b6000819050919050565b6200027e8162000269565b81146200028a57600080fd5b50565b6000815190506200029e8162000273565b92915050565b60008060008060808587031215620002c157620002c0620001c4565b5b6000620002d18782880162000217565b9450506020620002e48782880162000217565b9350506040620002f78782880162000252565b92505060606200030a878288016200028d565b91505092959194509250565b60805160a0516116a06200034a600039600081816102b20152610a570152600081816109230152610a1b01526116a06000f3fe6080604052600436106100a05760003560e01c8063d4f77b1c11610064578063d4f77b1c1461016a578063d7c81b5514610174578063ddca3f431461019f578063e849c38e146101ca578063f2fde38b146101f3578063f71d96cb1461021c576100a7565b80635e123ce4146100a957806361728f39146100d4578063715018a6146100ff5780638da5cb5b1461011657806394985ddd14610141576100a7565b366100a757005b005b3480156100b557600080fd5b506100be610259565b6040516100cb9190610c2f565b60405180910390f35b3480156100e057600080fd5b506100e961026c565b6040516100f69190610c63565b60405180910390f35b34801561010b57600080fd5b50610114610272565b005b34801561012257600080fd5b5061012b610286565b6040516101389190610cbf565b60405180910390f35b34801561014d57600080fd5b5061016860048036038101906101639190610d41565b6102b0565b005b61017261034c565b005b34801561018057600080fd5b50610189610492565b6040516101969190610d90565b60405180910390f35b3480156101ab57600080fd5b506101b4610498565b6040516101c19190610d90565b60405180910390f35b3480156101d657600080fd5b506101f160048036038101906101ec9190610de4565b61049e565b005b3480156101ff57600080fd5b5061021a60048036038101906102159190610e50565b6105b3565b005b34801561022857600080fd5b50610243600480360381019061023e9190610e7d565b610636565b6040516102509190610cbf565b60405180910390f35b600560019054906101000a900460ff1681565b60035481565b61027a610675565b61028460006106f3565b565b6000600160009054906101000a900473ffffffffffffffffffffffffffffffffffffffff16905090565b7f000000000000000000000000000000000000000000000000000000000000000073ffffffffffffffffffffffffffffffffffffffff163373ffffffffffffffffffffffffffffffffffffffff161461033e576040517f08c379a000000000000000000000000000000000000000000000000000000000815260040161033590610f07565b60405180910390fd5b61034882826107b9565b5050565b600560019054906101000a900460ff168015610369575060065434145b801561038b5750600560009054906101000a900460ff1660ff16600480549050105b6103ca576040517f08c379a00000000000000000000000000000000000000000000000000000000081526004016103c190610fe5565b60405180910390fd5b6004339080600181540180825580915050600190039060005260206000200160009091909190916101000a81548173ffffffffffffffffffffffffffffffffffffffff021916908373ffffffffffffffffffffffffffffffffffffffff1602179055507f87969bc7faf902221a147b95ceba76e011c5efb0339a0a8ee7a2bb82d9cfbbd660075433604051610460929190611005565b60405180910390a1600560009054906101000a900460ff1660ff16600480549050036104905761048e61091c565b505b565b60075481565b60025481565b6104a6610675565b60001515600560019054906101000a900460ff161515146104fc576040517f08c379a00000000000000000000000000000000000000000000000000000000081526004016104f39061107a565b60405180910390fd5b6004600061050a9190610bd6565b81600560006101000a81548160ff021916908360ff1602179055506001600560016101000a81548160ff0219169083151502179055508060068190555060016007600082825461055a91906110c9565b925050819055507f10a7675bf1b19b67834ca5a59866847fd31c62cdfc8e9466039e6b8e088e15ae600754600560009054906101000a900460ff166006546040516105a79392919061110c565b60405180910390a15050565b6105bb610675565b600073ffffffffffffffffffffffffffffffffffffffff168173ffffffffffffffffffffffffffffffffffffffff160361062a576040517f08c379a0000000000000000000000000000000000000000000000000000000008152600401610621906111b5565b60405180910390fd5b610633816106f3565b50565b6004818154811061064657600080fd5b906000526020600020016000915054906101000a900473ffffffffffffffffffffffffffffffffffffffff1681565b61067d610a0f565b73ffffffffffffffffffffffffffffffffffffffff1661069b610286565b73ffffffffffffffffffffffffffffffffffffffff16146106f1576040517f08c379a00000000000000000000000000000000000000000000000000000000081526004016106e890611221565b60405180910390fd5b565b6000600160009054906101000a900473ffffffffffffffffffffffffffffffffffffffff16905081600160006101000a81548173ffffffffffffffffffffffffffffffffffffffff021916908373ffffffffffffffffffffffffffffffffffffffff1602179055508173ffffffffffffffffffffffffffffffffffffffff168173ffffffffffffffffffffffffffffffffffffffff167f8be0079c531659141344cd1fd0a4f28419497f9722a3daafe3b4186f6b6457e060405160405180910390a35050565b6000600480549050826107cc9190611270565b90506000600482815481106107e4576107e36112a1565b5b9060005260206000200160009054906101000a900473ffffffffffffffffffffffffffffffffffffffff16905060008173ffffffffffffffffffffffffffffffffffffffff164760405161083790611301565b60006040518083038185875af1925050503d8060008114610874576040519150601f19603f3d011682016040523d82523d6000602084013e610879565b606091505b50509050806108bd576040517f08c379a00000000000000000000000000000000000000000000000000000000081526004016108b490611362565b60405180910390fd5b6000600560016101000a81548160ff0219169083151502179055507fd2da138ec4b828f6f1dd931eea0488e41e941f7cda657ad8f524ede8cb2c7ce0600754838760405161090d93929190611382565b60405180910390a15050505050565b60006002547f000000000000000000000000000000000000000000000000000000000000000073ffffffffffffffffffffffffffffffffffffffff166370a08231306040518263ffffffff1660e01b815260040161097a9190610cbf565b602060405180830381865afa158015610997573d6000803e3d6000fd5b505050506040513d601f19601f820116820180604052508101906109bb91906113ce565b10156109fc576040517f08c379a00000000000000000000000000000000000000000000000000000000081526004016109f390611447565b60405180910390fd5b610a0a600354600254610a17565b905090565b600033905090565b60007f000000000000000000000000000000000000000000000000000000000000000073ffffffffffffffffffffffffffffffffffffffff16634000aea07f000000000000000000000000000000000000000000000000000000000000000084866000604051602001610a8b929190611467565b6040516020818303038152906040526040518463ffffffff1660e01b8152600401610ab893929190611520565b6020604051808303816000875af1158015610ad7573d6000803e3d6000fd5b505050506040513d601f19601f82011682018060405250810190610afb919061158a565b506000610b1d8460003060008089815260200190815260200160002054610b67565b9050600160008086815260200190815260200160002054610b3e91906110c9565b60008086815260200190815260200160002081905550610b5e8482610ba3565b91505092915050565b600084848484604051602001610b8094939291906115b7565b6040516020818303038152906040528051906020012060001c9050949350505050565b60008282604051602001610bb892919061163e565b60405160208183030381529060405280519060200120905092915050565b5080546000825590600052602060002090810190610bf49190610bf7565b50565b5b80821115610c10576000816000905550600101610bf8565b5090565b60008115159050919050565b610c2981610c14565b82525050565b6000602082019050610c446000830184610c20565b92915050565b6000819050919050565b610c5d81610c4a565b82525050565b6000602082019050610c786000830184610c54565b92915050565b600073ffffffffffffffffffffffffffffffffffffffff82169050919050565b6000610ca982610c7e565b9050919050565b610cb981610c9e565b82525050565b6000602082019050610cd46000830184610cb0565b92915050565b600080fd5b610ce881610c4a565b8114610cf357600080fd5b50565b600081359050610d0581610cdf565b92915050565b6000819050919050565b610d1e81610d0b565b8114610d2957600080fd5b50565b600081359050610d3b81610d15565b92915050565b60008060408385031215610d5857610d57610cda565b5b6000610d6685828601610cf6565b9250506020610d7785828601610d2c565b9150509250929050565b610d8a81610d0b565b82525050565b6000602082019050610da56000830184610d81565b92915050565b600060ff82169050919050565b610dc181610dab565b8114610dcc57600080fd5b50565b600081359050610dde81610db8565b92915050565b60008060408385031215610dfb57610dfa610cda565b5b6000610e0985828601610dcf565b9250506020610e1a85828601610d2c565b9150509250929050565b610e2d81610c9e565b8114610e3857600080fd5b50565b600081359050610e4a81610e24565b92915050565b600060208284031215610e6657610e65610cda565b5b6000610e7484828501610e3b565b91505092915050565b600060208284031215610e9357610e92610cda565b5b6000610ea184828501610d2c565b91505092915050565b600082825260208201905092915050565b7f4f6e6c7920565246436f6f7264696e61746f722063616e2066756c66696c6c00600082015250565b6000610ef1601f83610eaa565b9150610efc82610ebb565b602082019050919050565b60006020820190508181036000830152610f2081610ee4565b9050919050565b7f506c6561736520636865636b2069662067616d6553746172746564202c796f7560008201527f2070726f76696f64656420616d6f756e7420657161756c20746f20656e74727960208201527f2066656520616e64206c6f7474657279206861736e277420726561636865642060408201527f746f206d6178206e756d626572206f6620706c61796572730000000000000000606082015250565b6000610fcf607883610eaa565b9150610fda82610f27565b608082019050919050565b60006020820190508181036000830152610ffe81610fc2565b9050919050565b600060408201905061101a6000830185610d81565b6110276020830184610cb0565b9392505050565b7f476f20636865636b204c6f74746572792069732072756e6e696e670000000000600082015250565b6000611064601b83610eaa565b915061106f8261102e565b602082019050919050565b6000602082019050818103600083015261109381611057565b9050919050565b7f4e487b7100000000000000000000000000000000000000000000000000000000600052601160045260246000fd5b60006110d482610d0b565b91506110df83610d0b565b92508282019050808211156110f7576110f661109a565b5b92915050565b61110681610dab565b82525050565b60006060820190506111216000830186610d81565b61112e60208301856110fd565b61113b6040830184610d81565b949350505050565b7f4f776e61626c653a206e6577206f776e657220697320746865207a65726f206160008201527f6464726573730000000000000000000000000000000000000000000000000000602082015250565b600061119f602683610eaa565b91506111aa82611143565b604082019050919050565b600060208201905081810360008301526111ce81611192565b9050919050565b7f4f776e61626c653a2063616c6c6572206973206e6f7420746865206f776e6572600082015250565b600061120b602083610eaa565b9150611216826111d5565b602082019050919050565b6000602082019050818103600083015261123a816111fe565b9050919050565b7f4e487b7100000000000000000000000000000000000000000000000000000000600052601260045260246000fd5b600061127b82610d0b565b915061128683610d0b565b92508261129657611295611241565b5b828206905092915050565b7f4e487b7100000000000000000000000000000000000000000000000000000000600052603260045260246000fd5b600081905092915050565b50565b60006112eb6000836112d0565b91506112f6826112db565b600082019050919050565b600061130c826112de565b9150819050919050565b7f5472616e73616374696f6e206f66204574686572206661696c65640000000000600082015250565b600061134c601b83610eaa565b915061135782611316565b602082019050919050565b6000602082019050818103600083015261137b8161133f565b9050919050565b60006060820190506113976000830186610d81565b6113a46020830185610cb0565b6113b16040830184610c54565b949350505050565b6000815190506113c881610d15565b92915050565b6000602082840312156113e4576113e3610cda565b5b60006113f2848285016113b9565b91505092915050565b7f4e6f7420656e6f756768204c494e4b0000000000000000000000000000000000600082015250565b6000611431600f83610eaa565b915061143c826113fb565b602082019050919050565b6000602082019050818103600083015261146081611424565b9050919050565b600060408201905061147c6000830185610c54565b6114896020830184610d81565b9392505050565b600081519050919050565b600082825260208201905092915050565b60005b838110156114ca5780820151818401526020810190506114af565b60008484015250505050565b6000601f19601f8301169050919050565b60006114f282611490565b6114fc818561149b565b935061150c8185602086016114ac565b611515816114d6565b840191505092915050565b60006060820190506115356000830186610cb0565b6115426020830185610d81565b818103604083015261155481846114e7565b9050949350505050565b61156781610c14565b811461157257600080fd5b50565b6000815190506115848161155e565b92915050565b6000602082840312156115a05761159f610cda565b5b60006115ae84828501611575565b91505092915050565b60006080820190506115cc6000830187610c54565b6115d96020830186610d81565b6115e66040830185610cb0565b6115f36060830184610d81565b95945050505050565b6000819050919050565b61161761161282610c4a565b6115fc565b82525050565b6000819050919050565b61163861163382610d0b565b61161d565b82525050565b600061164a8285611606565b60208201915061165a8284611627565b602082019150819050939250505056fea26469706673582212207bd5ef22fdc528fcb7ab2630dae6dee9ce9e76e8ef420b155a8fc8552fc9ea0664736f6c63430008110033",
  "devdoc": {
    "kind": "dev",
    "methods": {
      "constructor": {
        "params": {
          "linkToken": "address of LINK token contract",
          "vrfCoordinator": "address of VRFCoordinator contract",
          "vrfFee": "the amount of LINK to send with the request",
          "vrfKeyHash": "ID of public key against which randomness is generated"
        }
      },
      "owner()": {
        "details": "Returns the address of the current owner."
      },
      "renounceOwnership()": {
        "details": "Leaves the contract without owner. It will not be possible to call `onlyOwner` functions anymore. Can only be called by the current owner. NOTE: Renouncing ownership will leave the contract without an owner, thereby removing any functionality that is only available to the owner."
      },
      "transferOwnership(address)": {
        "details": "Transfers ownership of the contract to a new account (`newOwner`). Can only be called by the current owner."
      }
    },
    "version": 1
  },
  "userdoc": {
    "events": {
      "GameStarted(uint256,uint8,uint256)": {
        "notice": "events"
      }
    },
    "kind": "user",
    "methods": {
      "constructor": {
        "notice": "constructor inherits a VRFConsumerBase and initiates the values for keyHash, fee and gameStarted"
      }
    },
    "version": 1
  },
  "storageLayout": {
    "storage": [
      {
        "astId": 79,
        "contract": "contracts/Lottery.sol:Lottery",
        "label": "nonces",
        "offset": 0,
        "slot": "0",
        "type": "t_mapping(t_bytes32,t_uint256)"
      },
      {
        "astId": 273,
        "contract": "contracts/Lottery.sol:Lottery",
        "label": "_owner",
        "offset": 0,
        "slot": "1",
        "type": "t_address"
      },
      {
        "astId": 410,
        "contract": "contracts/Lottery.sol:Lottery",
        "label": "fee",
        "offset": 0,
        "slot": "2",
        "type": "t_uint256"
      },
      {
        "astId": 412,
        "contract": "contracts/Lottery.sol:Lottery",
        "label": "keyHash",
        "offset": 0,
        "slot": "3",
        "type": "t_bytes32"
      },
      {
        "astId": 415,
        "contract": "contracts/Lottery.sol:Lottery",
        "label": "players",
        "offset": 0,
        "slot": "4",
        "type": "t_array(t_address)dyn_storage"
      },
      {
        "astId": 417,
        "contract": "contracts/Lottery.sol:Lottery",
        "label": "maxPlayers",
        "offset": 0,
        "slot": "5",
        "type": "t_uint8"
      },
      {
        "astId": 419,
        "contract": "contracts/Lottery.sol:Lottery",
        "label": "gameStarted",
        "offset": 1,
        "slot": "5",
        "type": "t_bool"
      },
      {
        "astId": 421,
        "contract": "contracts/Lottery.sol:Lottery",
        "label": "entryFee",
        "offset": 0,
        "slot": "6",
        "type": "t_uint256"
      },
      {
        "astId": 423,
        "contract": "contracts/Lottery.sol:Lottery",
        "label": "gameId",
        "offset": 0,
        "slot": "7",
        "type": "t_uint256"
      }
    ],
    "types": {
      "t_address": {
        "encoding": "inplace",
        "label": "address",
        "numberOfBytes": "20"
      },
      "t_array(t_address)dyn_storage": {
        "base": "t_address",
        "encoding": "dynamic_array",
        "label": "address[]",
        "numberOfBytes": "32"
      },
      "t_bool": {
        "encoding": "inplace",
        "label": "bool",
        "numberOfBytes": "1"
      },
      "t_bytes32": {
        "encoding": "inplace",
        "label": "bytes32",
        "numberOfBytes": "32"
      },
      "t_mapping(t_bytes32,t_uint256)": {
        "encoding": "mapping",
        "key": "t_bytes32",
        "label": "mapping(bytes32 => uint256)",
        "numberOfBytes": "32",
        "value": "t_uint256"
      },
      "t_uint256": {
        "encoding": "inplace",
        "label": "uint256",
        "numberOfBytes": "32"
      },
      "t_uint8": {
        "encoding": "inplace",
        "label": "uint8",
        "numberOfBytes": "1"
      }
    }
  }
}